{
  "_format": "hh-sol-artifact-1",
  "contractName": "StashWish",
  "sourceName": "contracts/StashWish.sol",
  "abi": [
    {
      "inputs": [
        {
          "internalType": "string",
          "name": "name",
          "type": "string"
        },
        {
          "internalType": "string",
          "name": "flair",
          "type": "string"
        },
        {
          "internalType": "uint256",
          "name": "targetAmount",
          "type": "uint256"
        }
      ],
      "name": "addWishlistItem",
      "outputs": [],
      "stateMutability": "nonpayable",
      "type": "function"
    },
    {
      "inputs": [
        {
          "internalType": "address",
          "name": "user",
          "type": "address"
        }
      ],
      "name": "getWishlist",
      "outputs": [
        {
          "components": [
            {
              "internalType": "string",
              "name": "name",
              "type": "string"
            },
            {
              "internalType": "string",
              "name": "flair",
              "type": "string"
            },
            {
              "internalType": "uint256",
              "name": "targetAmount",
              "type": "uint256"
            },
            {
              "internalType": "uint256",
              "name": "savedAmount",
              "type": "uint256"
            },
            {
              "internalType": "bool",
              "name": "unlocked",
              "type": "bool"
            }
          ],
          "internalType": "struct StashWish.WishlistItem[]",
          "name": "",
          "type": "tuple[]"
        }
      ],
      "stateMutability": "view",
      "type": "function"
    },
    {
      "inputs": [
        {
          "internalType": "uint256",
          "name": "index",
          "type": "uint256"
        }
      ],
      "name": "stakeETH",
      "outputs": [],
      "stateMutability": "payable",
      "type": "function"
    },
    {
      "inputs": [
        {
          "internalType": "address",
          "name": "",
          "type": "address"
        },
        {
          "internalType": "uint256",
          "name": "",
          "type": "uint256"
        }
      ],
      "name": "userWishlists",
      "outputs": [
        {
          "internalType": "string",
          "name": "name",
          "type": "string"
        },
        {
          "internalType": "string",
          "name": "flair",
          "type": "string"
        },
        {
          "internalType": "uint256",
          "name": "targetAmount",
          "type": "uint256"
        },
        {
          "internalType": "uint256",
          "name": "savedAmount",
          "type": "uint256"
        },
        {
          "internalType": "bool",
          "name": "unlocked",
          "type": "bool"
        }
      ],
      "stateMutability": "view",
      "type": "function"
    }
  ],
  "bytecode": "0x608060405234801561001057600080fd5b50611016806100206000396000f3fe60806040526004361061003f5760003560e01c80636ecc20da146100445780637d181911146100605780638b9db8fa146100a1578063f61586da146100de575b600080fd5b61005e60048036038101906100599190610668565b610107565b005b34801561006c57600080fd5b50610087600480360381019061008291906106f3565b6101c5565b6040516100989594939291906107ed565b60405180910390f35b3480156100ad57600080fd5b506100c860048036038101906100c3919061084e565b610335565b6040516100d59190610a22565b60405180910390f35b3480156100ea57600080fd5b5061010560048036038101906101009190610b79565b610525565b005b6000341161014a576040517f08c379a000000000000000000000000000000000000000000000000000000000815260040161014190610c50565b60405180910390fd5b346000803373ffffffffffffffffffffffffffffffffffffffff1673ffffffffffffffffffffffffffffffffffffffff168152602001908152602001600020828154811061019b5761019a610c70565b5b906000526020600020906005020160030160008282546101bb9190610cce565b9250508190555050565b600060205281600052604060002081815481106101e157600080fd5b90600052602060002090600502016000915091505080600001805461020590610d31565b80601f016020809104026020016040519081016040528092919081815260200182805461023190610d31565b801561027e5780601f106102535761010080835404028352916020019161027e565b820191906000526020600020905b81548152906001019060200180831161026157829003601f168201915b50505050509080600101805461029390610d31565b80601f01602080910402602001604051908101604052809291908181526020018280546102bf90610d31565b801561030c5780601f106102e15761010080835404028352916020019161030c565b820191906000526020600020905b8154815290600101906020018083116102ef57829003601f168201915b5050505050908060020154908060030154908060040160009054906101000a900460ff16905085565b60606000808373ffffffffffffffffffffffffffffffffffffffff1673ffffffffffffffffffffffffffffffffffffffff168152602001908152602001600020805480602002602001604051908101604052809291908181526020016000905b8282101561051a57838290600052602060002090600502016040518060a00160405290816000820180546103c890610d31565b80601f01602080910402602001604051908101604052809291908181526020018280546103f490610d31565b80156104415780601f1061041657610100808354040283529160200191610441565b820191906000526020600020905b81548152906001019060200180831161042457829003601f168201915b5050505050815260200160018201805461045a90610d31565b80601f016020809104026020016040519081016040528092919081815260200182805461048690610d31565b80156104d35780601f106104a8576101008083540402835291602001916104d3565b820191906000526020600020905b8154815290600101906020018083116104b657829003601f168201915b5050505050815260200160028201548152602001600382015481526020016004820160009054906101000a900460ff16151515158152505081526020019060010190610395565b505050509050919050565b6000803373ffffffffffffffffffffffffffffffffffffffff1673ffffffffffffffffffffffffffffffffffffffff1681526020019081526020016000206040518060a001604052808581526020018481526020018381526020016000815260200160001515815250908060018154018082558091505060019003906000526020600020906005020160009091909190915060008201518160000190816105cc9190610f0e565b5060208201518160010190816105e29190610f0e565b50604082015181600201556060820151816003015560808201518160040160006101000a81548160ff0219169083151502179055505050505050565b6000604051905090565b600080fd5b600080fd5b6000819050919050565b61064581610632565b811461065057600080fd5b50565b6000813590506106628161063c565b92915050565b60006020828403121561067e5761067d610628565b5b600061068c84828501610653565b91505092915050565b600073ffffffffffffffffffffffffffffffffffffffff82169050919050565b60006106c082610695565b9050919050565b6106d0816106b5565b81146106db57600080fd5b50565b6000813590506106ed816106c7565b92915050565b6000806040838503121561070a57610709610628565b5b6000610718858286016106de565b925050602061072985828601610653565b9150509250929050565b600081519050919050565b600082825260208201905092915050565b60005b8381101561076d578082015181840152602081019050610752565b60008484015250505050565b6000601f19601f8301169050919050565b600061079582610733565b61079f818561073e565b93506107af81856020860161074f565b6107b881610779565b840191505092915050565b6107cc81610632565b82525050565b60008115159050919050565b6107e7816107d2565b82525050565b600060a0820190508181036000830152610807818861078a565b9050818103602083015261081b818761078a565b905061082a60408301866107c3565b61083760608301856107c3565b61084460808301846107de565b9695505050505050565b60006020828403121561086457610863610628565b5b6000610872848285016106de565b91505092915050565b600081519050919050565b600082825260208201905092915050565b6000819050602082019050919050565b600082825260208201905092915050565b60006108c382610733565b6108cd81856108a7565b93506108dd81856020860161074f565b6108e681610779565b840191505092915050565b6108fa81610632565b82525050565b610909816107d2565b82525050565b600060a083016000830151848203600086015261092c82826108b8565b9150506020830151848203602086015261094682826108b8565b915050604083015161095b60408601826108f1565b50606083015161096e60608601826108f1565b5060808301516109816080860182610900565b508091505092915050565b6000610998838361090f565b905092915050565b6000602082019050919050565b60006109b88261087b565b6109c28185610886565b9350836020820285016109d485610897565b8060005b85811015610a1057848403895281516109f1858261098c565b94506109fc836109a0565b925060208a019950506001810190506109d8565b50829750879550505050505092915050565b60006020820190508181036000830152610a3c81846109ad565b905092915050565b600080fd5b600080fd5b7f4e487b7100000000000000000000000000000000000000000000000000000000600052604160045260246000fd5b610a8682610779565b810181811067ffffffffffffffff82111715610aa557610aa4610a4e565b5b80604052505050565b6000610ab861061e565b9050610ac48282610a7d565b919050565b600067ffffffffffffffff821115610ae457610ae3610a4e565b5b610aed82610779565b9050602081019050919050565b82818337600083830152505050565b6000610b1c610b1784610ac9565b610aae565b905082815260208101848484011115610b3857610b37610a49565b5b610b43848285610afa565b509392505050565b600082601f830112610b6057610b5f610a44565b5b8135610b70848260208601610b09565b91505092915050565b600080600060608486031215610b9257610b91610628565b5b600084013567ffffffffffffffff811115610bb057610baf61062d565b5b610bbc86828701610b4b565b935050602084013567ffffffffffffffff811115610bdd57610bdc61062d565b5b610be986828701610b4b565b9250506040610bfa86828701610653565b9150509250925092565b7f53656e6420455448000000000000000000000000000000000000000000000000600082015250565b6000610c3a60088361073e565b9150610c4582610c04565b602082019050919050565b60006020820190508181036000830152610c6981610c2d565b9050919050565b7f4e487b7100000000000000000000000000000000000000000000000000000000600052603260045260246000fd5b7f4e487b7100000000000000000000000000000000000000000000000000000000600052601160045260246000fd5b6000610cd982610632565b9150610ce483610632565b9250828201905080821115610cfc57610cfb610c9f565b5b92915050565b7f4e487b7100000000000000000000000000000000000000000000000000000000600052602260045260246000fd5b60006002820490506001821680610d4957607f821691505b602082108103610d5c57610d5b610d02565b5b50919050565b60008190508160005260206000209050919050565b60006020601f8301049050919050565b600082821b905092915050565b600060088302610dc47fffffffffffffffffffffffffffffffffffffffffffffffffffffffffffffffff82610d87565b610dce8683610d87565b95508019841693508086168417925050509392505050565b6000819050919050565b6000610e0b610e06610e0184610632565b610de6565b610632565b9050919050565b6000819050919050565b610e2583610df0565b610e39610e3182610e12565b848454610d94565b825550505050565b600090565b610e4e610e41565b610e59818484610e1c565b505050565b5b81811015610e7d57610e72600082610e46565b600181019050610e5f565b5050565b601f821115610ec257610e9381610d62565b610e9c84610d77565b81016020851015610eab578190505b610ebf610eb785610d77565b830182610e5e565b50505b505050565b600082821c905092915050565b6000610ee560001984600802610ec7565b1980831691505092915050565b6000610efe8383610ed4565b9150826002028217905092915050565b610f1782610733565b67ffffffffffffffff811115610f3057610f2f610a4e565b5b610f3a8254610d31565b610f45828285610e81565b600060209050601f831160018114610f785760008415610f66578287015190505b610f708582610ef2565b865550610fd8565b601f198416610f8686610d62565b60005b82811015610fae57848901518255600182019150602085019450602081019050610f89565b86831015610fcb5784890151610fc7601f891682610ed4565b8355505b6001600288020188555050505b50505050505056fea264697066735822122059b55618d53a5db7f297d6e6b61cc13b8888fe0bf6206450ee105e7501b15c0964736f6c63430008140033",
  "linkReferences": {},
  "deployedLinkReferences": {}
}